{
  "_format": "hh-sol-artifact-1",
  "contractName": "KormiKotaNFT",
  "sourceName": "contracts/KormiKotaNFT.sol",
  "abi": [
    {
      "inputs": [
        {
          "internalType": "string",
          "name": "_name",
          "type": "string"
        },
        {
          "internalType": "string",
          "name": "_symbol",
          "type": "string"
        },
        {
          "internalType": "string",
          "name": "_baseUri",
          "type": "string"
        }
      ],
      "stateMutability": "nonpayable",
      "type": "constructor"
    },
    {
      "inputs": [],
      "name": "ApprovalCallerNotOwnerNorApproved",
      "type": "error"
    },
    {
      "inputs": [],
      "name": "ApprovalQueryForNonexistentToken",
      "type": "error"
    },
    {
      "inputs": [],
      "name": "ApprovalToCurrentOwner",
      "type": "error"
    },
    {
      "inputs": [],
      "name": "ApproveToCaller",
      "type": "error"
    },
    {
      "inputs": [],
      "name": "BalanceQueryForZeroAddress",
      "type": "error"
    },
    {
      "inputs": [],
      "name": "InvalidQueryRange",
      "type": "error"
    },
    {
      "inputs": [],
      "name": "MintToZeroAddress",
      "type": "error"
    },
    {
      "inputs": [],
      "name": "MintZeroQuantity",
      "type": "error"
    },
    {
      "inputs": [],
      "name": "OwnerQueryForNonexistentToken",
      "type": "error"
    },
    {
      "inputs": [],
      "name": "TransferCallerNotOwnerNorApproved",
      "type": "error"
    },
    {
      "inputs": [],
      "name": "TransferFromIncorrectOwner",
      "type": "error"
    },
    {
      "inputs": [],
      "name": "TransferToNonERC721ReceiverImplementer",
      "type": "error"
    },
    {
      "inputs": [],
      "name": "TransferToZeroAddress",
      "type": "error"
    },
    {
      "inputs": [],
      "name": "URIQueryForNonexistentToken",
      "type": "error"
    },
    {
      "anonymous": false,
      "inputs": [
        {
          "indexed": true,
          "internalType": "address",
          "name": "owner",
          "type": "address"
        },
        {
          "indexed": true,
          "internalType": "address",
          "name": "approved",
          "type": "address"
        },
        {
          "indexed": true,
          "internalType": "uint256",
          "name": "tokenId",
          "type": "uint256"
        }
      ],
      "name": "Approval",
      "type": "event"
    },
    {
      "anonymous": false,
      "inputs": [
        {
          "indexed": true,
          "internalType": "address",
          "name": "owner",
          "type": "address"
        },
        {
          "indexed": true,
          "internalType": "address",
          "name": "operator",
          "type": "address"
        },
        {
          "indexed": false,
          "internalType": "bool",
          "name": "approved",
          "type": "bool"
        }
      ],
      "name": "ApprovalForAll",
      "type": "event"
    },
    {
      "anonymous": false,
      "inputs": [
        {
          "indexed": false,
          "internalType": "address",
          "name": "caller",
          "type": "address"
        },
        {
          "indexed": false,
          "internalType": "uint256",
          "name": "tokenId",
          "type": "uint256"
        },
        {
          "indexed": false,
          "internalType": "uint256",
          "name": "level",
          "type": "uint256"
        }
      ],
      "name": "BuyToken",
      "type": "event"
    },
    {
      "anonymous": false,
      "inputs": [
        {
          "indexed": false,
          "internalType": "address",
          "name": "caller",
          "type": "address"
        },
        {
          "indexed": false,
          "internalType": "uint256",
          "name": "tokenId",
          "type": "uint256"
        },
        {
          "indexed": false,
          "internalType": "uint256",
          "name": "level",
          "type": "uint256"
        }
      ],
      "name": "MintToken",
      "type": "event"
    },
    {
      "anonymous": false,
      "inputs": [
        {
          "indexed": true,
          "internalType": "address",
          "name": "previousOwner",
          "type": "address"
        },
        {
          "indexed": true,
          "internalType": "address",
          "name": "newOwner",
          "type": "address"
        }
      ],
      "name": "OwnershipTransferred",
      "type": "event"
    },
    {
      "anonymous": false,
      "inputs": [
        {
          "indexed": false,
          "internalType": "uint256",
          "name": "tokenId",
          "type": "uint256"
        },
        {
          "indexed": false,
          "internalType": "uint256",
          "name": "presentIntent",
          "type": "uint256"
        },
        {
          "indexed": false,
          "internalType": "uint256",
          "name": "level",
          "type": "uint256"
        },
        {
          "indexed": false,
          "internalType": "uint256",
          "name": "tokenTokenIdInLevel",
          "type": "uint256"
        }
      ],
      "name": "PresentIntent",
      "type": "event"
    },
    {
      "anonymous": false,
      "inputs": [
        {
          "indexed": false,
          "internalType": "uint256",
          "name": "level",
          "type": "uint256"
        },
        {
          "indexed": false,
          "internalType": "uint256",
          "name": "amount",
          "type": "uint256"
        }
      ],
      "name": "SetAmountTotal",
      "type": "event"
    },
    {
      "anonymous": false,
      "inputs": [
        {
          "indexed": false,
          "internalType": "string",
          "name": "newBaseURI",
          "type": "string"
        }
      ],
      "name": "SetBaseURI",
      "type": "event"
    },
    {
      "anonymous": false,
      "inputs": [
        {
          "indexed": false,
          "internalType": "uint256",
          "name": "maxSupply",
          "type": "uint256"
        }
      ],
      "name": "SetMaxSupply",
      "type": "event"
    },
    {
      "anonymous": false,
      "inputs": [
        {
          "indexed": false,
          "internalType": "uint256",
          "name": "level",
          "type": "uint256"
        },
        {
          "indexed": false,
          "internalType": "uint256",
          "name": "price",
          "type": "uint256"
        }
      ],
      "name": "SetTokenLevelPrice",
      "type": "event"
    },
    {
      "anonymous": false,
      "inputs": [
        {
          "indexed": true,
          "internalType": "address",
          "name": "from",
          "type": "address"
        },
        {
          "indexed": true,
          "internalType": "address",
          "name": "to",
          "type": "address"
        },
        {
          "indexed": true,
          "internalType": "uint256",
          "name": "tokenId",
          "type": "uint256"
        }
      ],
      "name": "Transfer",
      "type": "event"
    },
    {
      "anonymous": false,
      "inputs": [
        {
          "indexed": false,
          "internalType": "uint256",
          "name": "amount",
          "type": "uint256"
        }
      ],
      "name": "Withdraw",
      "type": "event"
    },
    {
      "anonymous": false,
      "inputs": [],
      "name": "WithdrawAll",
      "type": "event"
    },
    {
      "inputs": [],
      "name": "LEVEL_ONE",
      "outputs": [
        {
          "internalType": "uint8",
          "name": "",
          "type": "uint8"
        }
      ],
      "stateMutability": "view",
      "type": "function"
    },
    {
      "inputs": [],
      "name": "LEVEL_THREE",
      "outputs": [
        {
          "internalType": "uint8",
          "name": "",
          "type": "uint8"
        }
      ],
      "stateMutability": "view",
      "type": "function"
    },
    {
      "inputs": [],
      "name": "LEVEL_TWO",
      "outputs": [
        {
          "internalType": "uint8",
          "name": "",
          "type": "uint8"
        }
      ],
      "stateMutability": "view",
      "type": "function"
    },
    {
      "inputs": [
        {
          "internalType": "uint8",
          "name": "",
          "type": "uint8"
        }
      ],
      "name": "amountMinted",
      "outputs": [
        {
          "internalType": "uint16",
          "name": "",
          "type": "uint16"
        }
      ],
      "stateMutability": "view",
      "type": "function"
    },
    {
      "inputs": [
        {
          "internalType": "uint8",
          "name": "",
          "type": "uint8"
        }
      ],
      "name": "amountTotal",
      "outputs": [
        {
          "internalType": "uint16",
          "name": "",
          "type": "uint16"
        }
      ],
      "stateMutability": "view",
      "type": "function"
    },
    {
      "inputs": [
        {
          "internalType": "address",
          "name": "to",
          "type": "address"
        },
        {
          "internalType": "uint256",
          "name": "tokenId",
          "type": "uint256"
        }
      ],
      "name": "approve",
      "outputs": [],
      "stateMutability": "nonpayable",
      "type": "function"
    },
    {
      "inputs": [
        {
          "internalType": "address",
          "name": "owner",
          "type": "address"
        }
      ],
      "name": "balanceOf",
      "outputs": [
        {
          "internalType": "uint256",
          "name": "",
          "type": "uint256"
        }
      ],
      "stateMutability": "view",
      "type": "function"
    },
    {
      "inputs": [],
      "name": "baseURI",
      "outputs": [
        {
          "internalType": "string",
          "name": "",
          "type": "string"
        }
      ],
      "stateMutability": "view",
      "type": "function"
    },
    {
      "inputs": [
        {
          "internalType": "address",
          "name": "_to",
          "type": "address"
        },
        {
          "internalType": "uint16",
          "name": "_amount",
          "type": "uint16"
        },
        {
          "internalType": "uint8",
          "name": "_level",
          "type": "uint8"
        }
      ],
      "name": "buyToken",
      "outputs": [],
      "stateMutability": "payable",
      "type": "function"
    },
    {
      "inputs": [
        {
          "internalType": "uint256",
          "name": "tokenId",
          "type": "uint256"
        }
      ],
      "name": "explicitOwnershipOf",
      "outputs": [
        {
          "components": [
            {
              "internalType": "address",
              "name": "addr",
              "type": "address"
            },
            {
              "internalType": "uint64",
              "name": "startTimestamp",
              "type": "uint64"
            },
            {
              "internalType": "bool",
              "name": "burned",
              "type": "bool"
            }
          ],
          "internalType": "struct IERC721A.TokenOwnership",
          "name": "",
          "type": "tuple"
        }
      ],
      "stateMutability": "view",
      "type": "function"
    },
    {
      "inputs": [
        {
          "internalType": "uint256[]",
          "name": "tokenIds",
          "type": "uint256[]"
        }
      ],
      "name": "explicitOwnershipsOf",
      "outputs": [
        {
          "components": [
            {
              "internalType": "address",
              "name": "addr",
              "type": "address"
            },
            {
              "internalType": "uint64",
              "name": "startTimestamp",
              "type": "uint64"
            },
            {
              "internalType": "bool",
              "name": "burned",
              "type": "bool"
            }
          ],
          "internalType": "struct IERC721A.TokenOwnership[]",
          "name": "",
          "type": "tuple[]"
        }
      ],
      "stateMutability": "view",
      "type": "function"
    },
    {
      "inputs": [
        {
          "internalType": "uint256",
          "name": "tokenId",
          "type": "uint256"
        }
      ],
      "name": "getApproved",
      "outputs": [
        {
          "internalType": "address",
          "name": "",
          "type": "address"
        }
      ],
      "stateMutability": "view",
      "type": "function"
    },
    {
      "inputs": [
        {
          "internalType": "uint256",
          "name": "_tokenId",
          "type": "uint256"
        },
        {
          "internalType": "uint256",
          "name": "_presentIntent",
          "type": "uint256"
        }
      ],
      "name": "getMyPresent",
      "outputs": [],
      "stateMutability": "nonpayable",
      "type": "function"
    },
    {
      "inputs": [
        {
          "internalType": "address",
          "name": "owner",
          "type": "address"
        },
        {
          "internalType": "address",
          "name": "operator",
          "type": "address"
        }
      ],
      "name": "isApprovedForAll",
      "outputs": [
        {
          "internalType": "bool",
          "name": "",
          "type": "bool"
        }
      ],
      "stateMutability": "view",
      "type": "function"
    },
    {
      "inputs": [
        {
          "internalType": "address",
          "name": "_to",
          "type": "address"
        },
        {
          "internalType": "uint16",
          "name": "_amount",
          "type": "uint16"
        },
        {
          "internalType": "uint8",
          "name": "_level",
          "type": "uint8"
        }
      ],
      "name": "mintToken",
      "outputs": [],
      "stateMutability": "nonpayable",
      "type": "function"
    },
    {
      "inputs": [],
      "name": "name",
      "outputs": [
        {
          "internalType": "string",
          "name": "",
          "type": "string"
        }
      ],
      "stateMutability": "view",
      "type": "function"
    },
    {
      "inputs": [],
      "name": "owner",
      "outputs": [
        {
          "internalType": "address",
          "name": "",
          "type": "address"
        }
      ],
      "stateMutability": "view",
      "type": "function"
    },
    {
      "inputs": [
        {
          "internalType": "uint256",
          "name": "tokenId",
          "type": "uint256"
        }
      ],
      "name": "ownerOf",
      "outputs": [
        {
          "internalType": "address",
          "name": "",
          "type": "address"
        }
      ],
      "stateMutability": "view",
      "type": "function"
    },
    {
      "inputs": [],
      "name": "pendingWithdrawal",
      "outputs": [
        {
          "internalType": "uint256",
          "name": "",
          "type": "uint256"
        }
      ],
      "stateMutability": "view",
      "type": "function"
    },
    {
      "inputs": [
        {
          "internalType": "uint256",
          "name": "",
          "type": "uint256"
        }
      ],
      "name": "presentIntent",
      "outputs": [
        {
          "internalType": "uint256",
          "name": "",
          "type": "uint256"
        }
      ],
      "stateMutability": "view",
      "type": "function"
    },
    {
      "inputs": [
        {
          "internalType": "uint256",
          "name": "",
          "type": "uint256"
        }
      ],
      "name": "presentIntentUsed",
      "outputs": [
        {
          "internalType": "bool",
          "name": "",
          "type": "bool"
        }
      ],
      "stateMutability": "view",
      "type": "function"
    },
    {
      "inputs": [],
      "name": "renounceOwnership",
      "outputs": [],
      "stateMutability": "nonpayable",
      "type": "function"
    },
    {
      "inputs": [
        {
          "internalType": "address",
          "name": "from",
          "type": "address"
        },
        {
          "internalType": "address",
          "name": "to",
          "type": "address"
        },
        {
          "internalType": "uint256",
          "name": "tokenId",
          "type": "uint256"
        }
      ],
      "name": "safeTransferFrom",
      "outputs": [],
      "stateMutability": "nonpayable",
      "type": "function"
    },
    {
      "inputs": [
        {
          "internalType": "address",
          "name": "from",
          "type": "address"
        },
        {
          "internalType": "address",
          "name": "to",
          "type": "address"
        },
        {
          "internalType": "uint256",
          "name": "tokenId",
          "type": "uint256"
        },
        {
          "internalType": "bytes",
          "name": "_data",
          "type": "bytes"
        }
      ],
      "name": "safeTransferFrom",
      "outputs": [],
      "stateMutability": "nonpayable",
      "type": "function"
    },
    {
      "inputs": [
        {
          "internalType": "uint8",
          "name": "_level",
          "type": "uint8"
        },
        {
          "internalType": "uint16",
          "name": "_amount",
          "type": "uint16"
        }
      ],
      "name": "setAmountTotal",
      "outputs": [],
      "stateMutability": "nonpayable",
      "type": "function"
    },
    {
      "inputs": [
        {
          "internalType": "address",
          "name": "operator",
          "type": "address"
        },
        {
          "internalType": "bool",
          "name": "approved",
          "type": "bool"
        }
      ],
      "name": "setApprovalForAll",
      "outputs": [],
      "stateMutability": "nonpayable",
      "type": "function"
    },
    {
      "inputs": [
        {
          "internalType": "string",
          "name": "_newBaseURI",
          "type": "string"
        }
      ],
      "name": "setBaseURI",
      "outputs": [],
      "stateMutability": "nonpayable",
      "type": "function"
    },
    {
      "inputs": [
        {
          "internalType": "uint8",
          "name": "_level",
          "type": "uint8"
        },
        {
          "internalType": "uint256",
          "name": "_price",
          "type": "uint256"
        }
      ],
      "name": "setTokenLevelPrice",
      "outputs": [],
      "stateMutability": "nonpayable",
      "type": "function"
    },
    {
      "inputs": [
        {
          "internalType": "bytes4",
          "name": "interfaceId",
          "type": "bytes4"
        }
      ],
      "name": "supportsInterface",
      "outputs": [
        {
          "internalType": "bool",
          "name": "",
          "type": "bool"
        }
      ],
      "stateMutability": "view",
      "type": "function"
    },
    {
      "inputs": [],
      "name": "symbol",
      "outputs": [
        {
          "internalType": "string",
          "name": "",
          "type": "string"
        }
      ],
      "stateMutability": "view",
      "type": "function"
    },
    {
      "inputs": [
        {
          "internalType": "uint256",
          "name": "",
          "type": "uint256"
        }
      ],
      "name": "tokenLevel",
      "outputs": [
        {
          "internalType": "uint8",
          "name": "",
          "type": "uint8"
        }
      ],
      "stateMutability": "view",
      "type": "function"
    },
    {
      "inputs": [
        {
          "internalType": "uint8",
          "name": "",
          "type": "uint8"
        }
      ],
      "name": "tokenLevelPrice",
      "outputs": [
        {
          "internalType": "uint256",
          "name": "",
          "type": "uint256"
        }
      ],
      "stateMutability": "view",
      "type": "function"
    },
    {
      "inputs": [
        {
          "internalType": "uint256",
          "name": "",
          "type": "uint256"
        }
      ],
      "name": "tokenTokenIdInLevel",
      "outputs": [
        {
          "internalType": "uint16",
          "name": "",
          "type": "uint16"
        }
      ],
      "stateMutability": "view",
      "type": "function"
    },
    {
      "inputs": [
        {
          "internalType": "uint256",
          "name": "_tokenId",
          "type": "uint256"
        }
      ],
      "name": "tokenURI",
      "outputs": [
        {
          "internalType": "string",
          "name": "",
          "type": "string"
        }
      ],
      "stateMutability": "view",
      "type": "function"
    },
    {
      "inputs": [
        {
          "internalType": "address",
          "name": "owner",
          "type": "address"
        }
      ],
      "name": "tokensOfOwner",
      "outputs": [
        {
          "internalType": "uint256[]",
          "name": "",
          "type": "uint256[]"
        }
      ],
      "stateMutability": "view",
      "type": "function"
    },
    {
      "inputs": [
        {
          "internalType": "address",
          "name": "owner",
          "type": "address"
        },
        {
          "internalType": "uint256",
          "name": "start",
          "type": "uint256"
        },
        {
          "internalType": "uint256",
          "name": "stop",
          "type": "uint256"
        }
      ],
      "name": "tokensOfOwnerIn",
      "outputs": [
        {
          "internalType": "uint256[]",
          "name": "",
          "type": "uint256[]"
        }
      ],
      "stateMutability": "view",
      "type": "function"
    },
    {
      "inputs": [],
      "name": "totalSupply",
      "outputs": [
        {
          "internalType": "uint256",
          "name": "",
          "type": "uint256"
        }
      ],
      "stateMutability": "view",
      "type": "function"
    },
    {
      "inputs": [
        {
          "internalType": "address",
          "name": "from",
          "type": "address"
        },
        {
          "internalType": "address",
          "name": "to",
          "type": "address"
        },
        {
          "internalType": "uint256",
          "name": "tokenId",
          "type": "uint256"
        }
      ],
      "name": "transferFrom",
      "outputs": [],
      "stateMutability": "nonpayable",
      "type": "function"
    },
    {
      "inputs": [
        {
          "internalType": "address",
          "name": "newOwner",
          "type": "address"
        }
      ],
      "name": "transferOwnership",
      "outputs": [],
      "stateMutability": "nonpayable",
      "type": "function"
    },
    {
      "inputs": [
        {
          "internalType": "uint256",
          "name": "_amount",
          "type": "uint256"
        }
      ],
      "name": "withdraw",
      "outputs": [],
      "stateMutability": "nonpayable",
      "type": "function"
    },
    {
      "inputs": [],
      "name": "withdrawAll",
      "outputs": [],
      "stateMutability": "nonpayable",
      "type": "function"
    }
  ],
  "bytecode": "0x60806040526000600955600a805462ffffff1916620302011790553480156200002757600080fd5b5060405162002f1f38038062002f1f8339810160408190526200004a916200036c565b825183908390620000639060029060208501906200020f565b508051620000799060039060208401906200020f565b505060008055506200008b33620001bd565b7f169f97de0d9a84d840042b17d3c6b9638b3d6fd9024c9eb0c7a306a17b49f88f805461ffff199081166101f4908117909255662386f26fc100007f17bc176d2408558f6e4111feebc3cab4e16b63e967be91cde721f4c8a488b552557fa74ba3945261e09fde15ba3db55005b205e61eeb4ad811ac0faa2b315bffeead8054821661032017905566b1a2bc2ec500007f08037d7b151cc412d25674a4e66b334d9ae9d2e5517a7feaae5cdb828bf1c6285560036000527f45f76dafbbad695564362934e24d72eedc57f9fc1a65f39bca62176cc8296828805490911690911790556011602090815267016345785d8a00007f9bfbaa59f8e10e7868f8b402de9d605a390c45ddaebd8c9de3c6f31e733c87ff558151620001b391600b91908401906200020f565b5050505062000450565b600880546001600160a01b038381166001600160a01b0319831681179093556040519116919082907f8be0079c531659141344cd1fd0a4f28419497f9722a3daafe3b4186f6b6457e090600090a35050565b8280546200021d90620003fd565b90600052602060002090601f0160209004810192826200024157600085556200028c565b82601f106200025c57805160ff19168380011785556200028c565b828001600101855582156200028c579182015b828111156200028c5782518255916020019190600101906200026f565b506200029a9291506200029e565b5090565b5b808211156200029a57600081556001016200029f565b600082601f830112620002c757600080fd5b81516001600160401b0380821115620002e457620002e46200043a565b604051601f8301601f19908116603f011681019082821181831017156200030f576200030f6200043a565b816040528381526020925086838588010111156200032c57600080fd5b600091505b8382101562000350578582018301518183018401529082019062000331565b83821115620003625760008385830101525b9695505050505050565b6000806000606084860312156200038257600080fd5b83516001600160401b03808211156200039a57600080fd5b620003a887838801620002b5565b94506020860151915080821115620003bf57600080fd5b620003cd87838801620002b5565b93506040860151915080821115620003e457600080fd5b50620003f386828701620002b5565b9150509250925092565b600181811c908216806200041257607f821691505b602082108114156200043457634e487b7160e01b600052602260045260246000fd5b50919050565b634e487b7160e01b600052604160045260246000fd5b612abf80620004606000396000f3fe6080604052600436106101d65760003560e01c806301fe03b0146101db57806301ffc9a71461021157806306fdde0314610241578063081812fc14610263578063095ea7b31461029b57806318160ddd146102bd57806321fc674e146102e057806323b872dd146103105780632e1a7d4d1461033057806342842e0e1461035057806355f804b314610370578063569d7676146103905780635bbb2177146103d45780635ccaa7df146104015780636352211e146104325780636c0360eb1461045257806370a0823114610467578063715018a6146104875780637e2888221461049c578063831c789c146104af5780638462151c146104cf578063853828b6146104fc5780638da5cb5b1461051157806395d89b411461052657806399a2557a1461053b5780639a5447201461055b578063a22cb46514610575578063a34961d514610595578063ab8ece8b146105b5578063b2269170146105e5578063b6bb93e214610612578063b88d4fde14610632578063c23dc68f14610652578063c87b56dd1461067f578063d059792d1461069f578063e0571ab6146106bf578063e985e9c5146106ec578063f19f197a1461070c578063f2d2fd981461073d578063f2fde38b14610750578063f972d06214610770575b600080fd5b3480156101e757600080fd5b50600a546101fa90610100900460ff1681565b60405160ff90911681526020015b60405180910390f35b34801561021d57600080fd5b5061023161022c36600461249c565b610790565b6040519015158152602001610208565b34801561024d57600080fd5b506102566107e2565b6040516102089190612812565b34801561026f57600080fd5b5061028361027e36600461251e565b610874565b6040516001600160a01b039091168152602001610208565b3480156102a757600080fd5b506102bb6102b6366004612393565b6108b8565b005b3480156102c957600080fd5b50600154600054035b604051908152602001610208565b3480156102ec57600080fd5b506102316102fb36600461251e565b600d6020526000908152604090205460ff1681565b34801561031c57600080fd5b506102bb61032b36600461225d565b61098b565b34801561033c57600080fd5b506102bb61034b36600461251e565b61099b565b34801561035c57600080fd5b506102bb61036b36600461225d565b610a13565b34801561037c57600080fd5b506102bb61038b3660046124d6565b610a2e565b34801561039c57600080fd5b506103c16103ab36600461251e565b60126020526000908152604090205461ffff1681565b60405161ffff9091168152602001610208565b3480156103e057600080fd5b506103f46103ef3660046123f0565b610aa0565b6040516102089190612798565b34801561040d57600080fd5b506103c161041c366004612559565b600f6020526000908152604090205461ffff1681565b34801561043e57600080fd5b5061028361044d36600461251e565b610b54565b34801561045e57600080fd5b50610256610b5f565b34801561047357600080fd5b506102d261048236600461220f565b610bed565b34801561049357600080fd5b506102bb610c3b565b3480156104a857600080fd5b50476102d2565b3480156104bb57600080fd5b506102bb6104ca366004612350565b610c6c565b3480156104db57600080fd5b506104ef6104ea36600461220f565b610ecc565b60405161020891906127da565b34801561050857600080fd5b506102bb610fb9565b34801561051d57600080fd5b5061028361101c565b34801561053257600080fd5b5061025661102b565b34801561054757600080fd5b506104ef6105563660046123bd565b61103a565b34801561056757600080fd5b50600a546101fa9060ff1681565b34801561058157600080fd5b506102bb610590366004612314565b6111b7565b3480156105a157600080fd5b506102bb6105b0366004612574565b61124d565b3480156105c157600080fd5b506101fa6105d036600461251e565b60106020526000908152604090205460ff1681565b3480156105f157600080fd5b506102d261060036600461251e565b600c6020526000908152604090205481565b34801561061e57600080fd5b50600a546101fa9062010000900460ff1681565b34801561063e57600080fd5b506102bb61064d366004612299565b611313565b34801561065e57600080fd5b5061067261066d36600461251e565b61135d565b604051610208919061289b565b34801561068b57600080fd5b5061025661069a36600461251e565b6113a0565b3480156106ab57600080fd5b506102bb6106ba36600461259e565b61147e565b3480156106cb57600080fd5b506102d26106da366004612559565b60116020526000908152604090205481565b3480156106f857600080fd5b5061023161070736600461222a565b61152d565b34801561071857600080fd5b506103c1610727366004612559565b600e6020526000908152604090205461ffff1681565b6102bb61074b366004612350565b61155b565b34801561075c57600080fd5b506102bb61076b36600461220f565b6117e5565b34801561077c57600080fd5b506102bb61078b366004612537565b611885565b60006301ffc9a760e01b6001600160e01b0319831614806107c157506380ac58cd60e01b6001600160e01b03198316145b806107dc5750635b5e139f60e01b6001600160e01b03198316145b92915050565b6060600280546107f190612991565b80601f016020809104026020016040519081016040528092919081815260200182805461081d90612991565b801561086a5780601f1061083f5761010080835404028352916020019161086a565b820191906000526020600020905b81548152906001019060200180831161084d57829003601f168201915b5050505050905090565b600061087f82611a42565b61089c576040516333d1c03960e21b815260040160405180910390fd5b506000908152600660205260409020546001600160a01b031690565b60006108c382611a69565b9050806001600160a01b0316836001600160a01b031614156108f85760405163250fdee360e21b815260040160405180910390fd5b336001600160a01b0382161461092f57610912813361152d565b61092f576040516367d9dca160e11b815260040160405180910390fd5b60008281526006602052604080822080546001600160a01b0319166001600160a01b0387811691821790925591518593918516917f8c5be1e5ebec7d5bd14f71427d1e84f3dd0314c0f7b2291e5b200ac8c7c3b92591a4505050565b610996838383611aca565b505050565b336109a461101c565b6001600160a01b0316146109d35760405162461bcd60e51b81526004016109ca90612825565b60405180910390fd5b6109dc81611c5b565b6040518181527f5b6b431d4476a211bb7d41c20d1aab9ae2321deee0d20be3d9fc9b1093fa6e3d906020015b60405180910390a150565b61099683838360405180602001604052806000815250611313565b33610a3761101c565b6001600160a01b031614610a5d5760405162461bcd60e51b81526004016109ca90612825565b8051610a7090600b9060208401906120c5565b507f23c8c9488efebfd474e85a7956de6f39b17c7ab88502d42a623db2d8e382bbaa81604051610a089190612812565b80516060906000816001600160401b03811115610abf57610abf612a3d565b604051908082528060200260200182016040528015610af857816020015b610ae5612149565b815260200190600190039081610add5790505b50905060005b828114610b4c57610b27858281518110610b1a57610b1a612a27565b602002602001015161135d565b828281518110610b3957610b39612a27565b6020908102919091010152600101610afe565b509392505050565b60006107dc82611a69565b600b8054610b6c90612991565b80601f0160208091040260200160405190810160405280929190818152602001828054610b9890612991565b8015610be55780601f10610bba57610100808354040283529160200191610be5565b820191906000526020600020905b815481529060010190602001808311610bc857829003601f168201915b505050505081565b60006001600160a01b038216610c16576040516323d3ad8160e21b815260040160405180910390fd5b506001600160a01b03166000908152600560205260409020546001600160401b031690565b33610c4461101c565b6001600160a01b031614610c6a5760405162461bcd60e51b81526004016109ca90612825565b565b33610c7561101c565b6001600160a01b031614610c9b5760405162461bcd60e51b81526004016109ca90612825565b60ff81166000908152600f6020526040902054819061ffff16610cd05760405162461bcd60e51b81526004016109ca9061285a565b60ff82166000908152600e6020908152604080832054600f9092529091205461ffff91821691908116906005908616610d0888610bed565b610d1291906128ff565b1115610d795760405162461bcd60e51b815260206004820152603060248201527f4b6f726d694b6f74614e46543a20596f752063616e6e6f74206d696e74206d6f60448201526f7265207468616e203520746f6b656e7360801b60648201526084016109ca565b610d83828261292b565b61ffff168561ffff161115610dda5760405162461bcd60e51b815260206004820152601f60248201527f4b6f726d694b6f74614e46543a204e6f20746f6b656e7320746f206d696e740060448201526064016109ca565b60005b8561ffff16811015610eb557610df46001846128d9565b60ff86166000818152600e60209081526040808320805461ffff871661ffff19918216811790925560098054865260108552838620805460ff19169097179096558554855260129093529281902080549092169092179055905490519194507fefe4ea707dd09d37bcd06c781d2b10b39d7cd98a6e0af1318600551fece3a1bb91610e82918a918990612774565b60405180910390a1600160096000828254610e9d91906128ff565b90915550819050610ead816129cc565b915050610ddd565b50610ec4868661ffff16611d42565b505050505050565b60606000806000610edc85610bed565b90506000816001600160401b03811115610ef857610ef8612a3d565b604051908082528060200260200182016040528015610f21578160200160208202803683370190505b509050610f2c612149565b60005b838614610fad57610f3f81611e0c565b9150816040015115610f5057610fa5565b81516001600160a01b031615610f6557815194505b876001600160a01b0316856001600160a01b03161415610fa55780838780600101985081518110610f9857610f98612a27565b6020026020010181815250505b600101610f2f565b50909695505050505050565b33610fc261101c565b6001600160a01b031614610fe85760405162461bcd60e51b81526004016109ca90612825565b610ff147611c5b565b6040517f5a648bc540f9bf9a33d1fe64d284e4a69a88aa95d4c7f8054d4bc85f877dcf4e90600090a1565b6008546001600160a01b031690565b6060600380546107f190612991565b606081831061105c57604051631960ccad60e11b815260040160405180910390fd5b60008061106860005490565b905080841115611076578093505b600061108187610bed565b9050848610156110a0578585038181101561109a578091505b506110a4565b5060005b6000816001600160401b038111156110be576110be612a3d565b6040519080825280602002602001820160405280156110e7578160200160208202803683370190505b509050816110fa5793506111b092505050565b60006111058861135d565b905060008160400151611116575080515b885b8881141580156111285750848714155b156111a45761113681611e0c565b92508260400151156111475761119c565b82516001600160a01b03161561115c57825191505b8a6001600160a01b0316826001600160a01b0316141561119c578084888060010199508151811061118f5761118f612a27565b6020026020010181815250505b600101611118565b50505092835250909150505b9392505050565b6001600160a01b0382163314156111e15760405163b06307db60e01b815260040160405180910390fd5b3360008181526007602090815260408083206001600160a01b03871680855290835292819020805460ff191686151590811790915590519081529192917f17307eab39ab6107e8899845ad3d59bd9653f200f220920489ca2b5937696c31910160405180910390a35050565b3361125661101c565b6001600160a01b03161461127c5760405162461bcd60e51b81526004016109ca90612825565b60ff82166000908152600f6020526040902054829061ffff166112b15760405162461bcd60e51b81526004016109ca9061285a565b60ff83166000818152600f6020908152604091829020805461ffff191661ffff87169081179091558251938452908301527ff17eb52f99e7759b51e8f533ba1b2d2efe39d5c3f7d0c5a2be8d65038471952c91015b60405180910390a1505050565b61131e848484611aca565b6001600160a01b0383163b156113575761133a84848484611e2c565b611357576040516368d2bf6b60e11b815260040160405180910390fd5b50505050565b611365612149565b61136d612149565b600054831061137c5792915050565b61138583611e0c565b90508060400151156113975792915050565b6111b083611f24565b60606113ab82611a42565b1561143c576000600b80546113bf90612991565b9050116113db57604051806020016040528060008152506107dc565b600082815260106020526040902054600b906113f99060ff16611f3d565b6000848152601260205260409020546114159061ffff16611f3d565b604051602001611427939291906126ad565b60405160208183030381529060405292915050565b6000600b805461144b90612991565b90501161146757604051806020016040528060008152506107dc565b600b6040516020016114279190612705565b919050565b3361148761101c565b6001600160a01b0316146114ad5760405162461bcd60e51b81526004016109ca90612825565b60ff82166000908152600f6020526040902054829061ffff166114e25760405162461bcd60e51b81526004016109ca9061285a565b60ff8316600081815260116020908152604091829020859055815192835282018490527fdc989d5dea53678a2fd5e6520f22e9c950e7630089b0af6044b1d7766ad2a77f9101611306565b6001600160a01b03918216600090815260076020908152604080832093909416825291909152205460ff1690565b60ff81166000908152600f6020526040902054819061ffff166115905760405162461bcd60e51b81526004016109ca9061285a565b60ff82166000908152600e6020908152604080832054600f90925290912054349161ffff9081169181169060059087166115c989610bed565b6115d391906128ff565b11156116395760405162461bcd60e51b815260206004820152602f60248201527f4b6f726d694b6f74614e46543a20596f752063616e6e6f7420627579206d6f7260448201526e65207468616e203520746f6b656e7360881b60648201526084016109ca565b60ff851660009081526011602052604090205483101561169b5760405162461bcd60e51b815260206004820152601e60248201527f4b6f726d694b6f74614e46543a20546f6b656e20636f737473206d6f7265000060448201526064016109ca565b8061ffff168261ffff16106116f25760405162461bcd60e51b815260206004820152601e60248201527f4b6f726d694b6f74614e46543a204e6f20746f6b656e7320746f20627579000060448201526064016109ca565b60005b8661ffff168110156117cd5761170c6001846128d9565b60ff87166000818152600e60209081526040808320805461ffff871661ffff19918216811790925560098054865260108552838620805460ff19169097179096558554855260129093529281902080549092169092179055905490519194507ff6f342132c7de5e5a1e99c8efae544c94731f3ff093f5c3c97c6973d9415cdfb9161179a918b918a90612774565b60405180910390a16001600960008282546117b591906128ff565b909155508190506117c5816129cc565b9150506116f5565b506117dc878761ffff16611d42565b50505050505050565b336117ee61101c565b6001600160a01b0316146118145760405162461bcd60e51b81526004016109ca90612825565b6001600160a01b0381166118795760405162461bcd60e51b815260206004820152602660248201527f4f776e61626c653a206e6577206f776e657220697320746865207a65726f206160448201526564647265737360d01b60648201526084016109ca565b6118828161203a565b50565b338061189084610b54565b6001600160a01b0316146118e05760405162461bcd60e51b815260206004820152601760248201527625b7b936b4a5b7ba30a7232a1d102737ba1037bbb732b960491b60448201526064016109ca565b6000828152600d602052604090205460ff16156119515760405162461bcd60e51b815260206004820152602960248201527f4b6f726d694b6f74614e46543a2050726573656e7420696e74656e7420616c726044820152681958591e481d5cd95960ba1b60648201526084016109ca565b6000838152600c6020526040902054156119ad5760405162461bcd60e51b815260206004820181905260248201527f4b6f726d694b6f74614e46543a20546f6b656e20616c7265616479207573656460448201526064016109ca565b6000838152600c60209081526040808320859055848352600d8252808320805460ff191660011790558583526010825280832054601283529281902054815187815292830186905260ff90931690820181905261ffff90921660608201819052907f3fdde7774aa3162afb04d5f979cfca9f413697f71d4d3870cbe3c7b3692d68879060800160405180910390a15050505050565b60008054821080156107dc575050600090815260046020526040902054600160e01b161590565b600081600054811015611ab157600081815260046020526040902054600160e01b8116611aaf575b806111b0575060001901600081815260046020526040902054611a91565b505b604051636f96cda160e11b815260040160405180910390fd5b6000611ad582611a69565b9050836001600160a01b0316816001600160a01b031614611b085760405162a1148160e81b815260040160405180910390fd5b6000336001600160a01b0386161480611b265750611b26853361152d565b80611b41575033611b3684610874565b6001600160a01b0316145b905080611b6157604051632ce44b5f60e11b815260040160405180910390fd5b6001600160a01b038416611b8857604051633a954ecd60e21b815260040160405180910390fd5b600083815260066020908152604080832080546001600160a01b03191690556001600160a01b038881168452600583528184208054600019019055871683528083208054600101905585835260049091529020600160e11b4260a01b861781179091558216611c255760018301600081815260046020526040902054611c23576000548114611c235760008181526004602052604090208390555b505b82846001600160a01b0316866001600160a01b0316600080516020612a6a83398151915260405160405180910390a45050505050565b60008111611cc15760405162461bcd60e51b815260206004820152602d60248201527f576974686472617761626c653a20416d6f756e742068617320746f206265206760448201526c0726561746572207468616e203609c1b60648201526084016109ca565b47811115611d115760405162461bcd60e51b815260206004820152601e60248201527f576974686472617761626c653a204e6f7420656e6f7567682066756e6473000060448201526064016109ca565b604051339082156108fc029083906000818181858888f19350505050158015611d3e573d6000803e3d6000fd5b5050565b6000546001600160a01b038316611d6b57604051622e076360e81b815260040160405180910390fd5b81611d895760405163b562e8dd60e01b815260040160405180910390fd5b6001600160a01b038316600090815260056020908152604080832080546001600160401b018702019055838352600490915290204260a01b84176001841460e11b179055808083015b6040516001830192906001600160a01b03871690600090600080516020612a6a833981519152908290a4808210611dd25750600055505050565b611e14612149565b6000828152600460205260409020546107dc9061208c565b604051630a85bd0160e11b81526000906001600160a01b0385169063150b7a0290611e61903390899088908890600401612737565b602060405180830381600087803b158015611e7b57600080fd5b505af1925050508015611eab575060408051601f3d908101601f19168201909252611ea8918101906124b9565b60015b611f06573d808015611ed9576040519150601f19603f3d011682016040523d82523d6000602084013e611ede565b606091505b508051611efe576040516368d2bf6b60e11b815260040160405180910390fd5b805181602001fd5b6001600160e01b031916630a85bd0160e11b1490505b949350505050565b611f2c612149565b6107dc611f3883611a69565b61208c565b606081611f615750506040805180820190915260018152600360fc1b602082015290565b8160005b8115611f8b5780611f75816129cc565b9150611f849050600a83612917565b9150611f65565b6000816001600160401b03811115611fa557611fa5612a3d565b6040519080825280601f01601f191660200182016040528015611fcf576020820181803683370190505b5090505b8415611f1c57611fe460018361294e565b9150611ff1600a866129e7565b611ffc9060306128ff565b60f81b81838151811061201157612011612a27565b60200101906001600160f81b031916908160001a905350612033600a86612917565b9450611fd3565b600880546001600160a01b038381166001600160a01b0319831681179093556040519116919082907f8be0079c531659141344cd1fd0a4f28419497f9722a3daafe3b4186f6b6457e090600090a35050565b612094612149565b6001600160a01b03821681526001600160401b0360a083901c166020820152600160e01b9091161515604082015290565b8280546120d190612991565b90600052602060002090601f0160209004810192826120f35760008555612139565b82601f1061210c57805160ff1916838001178555612139565b82800160010185558215612139579182015b8281111561213957825182559160200191906001019061211e565b50612145929150612169565b5090565b604080516060810182526000808252602082018190529181019190915290565b5b80821115612145576000815560010161216a565b60006001600160401b0383111561219757612197612a3d565b6121aa601f8401601f19166020016128a9565b90508281528383830111156121be57600080fd5b828260208301376000602084830101529392505050565b80356001600160a01b038116811461147957600080fd5b803561ffff8116811461147957600080fd5b803560ff8116811461147957600080fd5b60006020828403121561222157600080fd5b6111b0826121d5565b6000806040838503121561223d57600080fd5b612246836121d5565b9150612254602084016121d5565b90509250929050565b60008060006060848603121561227257600080fd5b61227b846121d5565b9250612289602085016121d5565b9150604084013590509250925092565b600080600080608085870312156122af57600080fd5b6122b8856121d5565b93506122c6602086016121d5565b92506040850135915060608501356001600160401b038111156122e857600080fd5b8501601f810187136122f957600080fd5b6123088782356020840161217e565b91505092959194509250565b6000806040838503121561232757600080fd5b612330836121d5565b91506020830135801515811461234557600080fd5b809150509250929050565b60008060006060848603121561236557600080fd5b61236e846121d5565b925061237c602085016121ec565b915061238a604085016121fe565b90509250925092565b600080604083850312156123a657600080fd5b6123af836121d5565b946020939093013593505050565b6000806000606084860312156123d257600080fd5b6123db846121d5565b95602085013595506040909401359392505050565b6000602080838503121561240357600080fd5b82356001600160401b038082111561241a57600080fd5b818501915085601f83011261242e57600080fd5b81358181111561244057612440612a3d565b8060051b91506124518483016128a9565b8181528481019084860184860187018a101561246c57600080fd5b600095505b8386101561248f578035835260019590950194918601918601612471565b5098975050505050505050565b6000602082840312156124ae57600080fd5b81356111b081612a53565b6000602082840312156124cb57600080fd5b81516111b081612a53565b6000602082840312156124e857600080fd5b81356001600160401b038111156124fe57600080fd5b8201601f8101841361250f57600080fd5b611f1c8482356020840161217e565b60006020828403121561253057600080fd5b5035919050565b6000806040838503121561254a57600080fd5b50508035926020909101359150565b60006020828403121561256b57600080fd5b6111b0826121fe565b6000806040838503121561258757600080fd5b612590836121fe565b9150612254602084016121ec565b600080604083850312156125b157600080fd5b6123af836121fe565b600081518084526125d2816020860160208601612965565b601f01601f19169290920160200192915050565b8054600090600181811c908083168061260057607f831692505b602080841082141561262257634e487b7160e01b600052602260045260246000fd5b818015612636576001811461264757612674565b60ff19861689528489019650612674565b60008881526020902060005b8681101561266c5781548b820152908501908301612653565b505084890196505b50505050505092915050565b80516001600160a01b031682526020808201516001600160401b0316908301526040908101511515910152565b60006126b982866125e6565b84516126c9818360208901612965565b602f60f81b910190815283516126e6816001840160208801612965565b64173539b7b760d91b6001929091019182015260060195945050505050565b600061271182846125e6565b7535b7b936b4a5b7ba30a7232a16bbb0b4ba173539b7b760511b81526016019392505050565b6001600160a01b038581168252841660208201526040810183905260806060820181905260009061276a908301846125ba565b9695505050505050565b6001600160a01b03939093168352602083019190915260ff16604082015260600190565b6020808252825182820181905260009190848201906040850190845b81811015610fad576127c7838551612680565b92840192606092909201916001016127b4565b6020808252825182820181905260009190848201906040850190845b81811015610fad578351835292840192918401916001016127f6565b6020815260006111b060208301846125ba565b6020808252818101527f4f776e61626c653a2063616c6c6572206973206e6f7420746865206f776e6572604082015260600190565b60208082526021908201527f4b6f726d694b6f74614e46543a204c6576656c20646f65736e277420657869736040820152601d60fa1b606082015260800190565b606081016107dc8284612680565b604051601f8201601f191681016001600160401b03811182821017156128d1576128d1612a3d565b604052919050565b600061ffff8083168185168083038211156128f6576128f66129fb565b01949350505050565b60008219821115612912576129126129fb565b500190565b60008261292657612926612a11565b500490565b600061ffff83811690831681811015612946576129466129fb565b039392505050565b600082821015612960576129606129fb565b500390565b60005b83811015612980578181015183820152602001612968565b838111156113575750506000910152565b600181811c908216806129a557607f821691505b602082108114156129c657634e487b7160e01b600052602260045260246000fd5b50919050565b60006000198214156129e0576129e06129fb565b5060010190565b6000826129f6576129f6612a11565b500690565b634e487b7160e01b600052601160045260246000fd5b634e487b7160e01b600052601260045260246000fd5b634e487b7160e01b600052603260045260246000fd5b634e487b7160e01b600052604160045260246000fd5b6001600160e01b03198116811461188257600080fdfeddf252ad1be2c89b69c2b068fc378daa952ba7f163c4a11628f55a4df523b3efa2646970667358221220b9541da19e31aa6954ce773587bd1adea3bf79e25ae6ff59ee9ecc780ede522e64736f6c63430008060033",
  "linkReferences": {},
  "deployedLinkReferences": {}
}